{
  "_format": "hh-sol-artifact-1",
  "contractName": "Becha",
  "sourceName": "contracts/becha.sol",
  "abi": [
    {
      "inputs": [],
      "stateMutability": "nonpayable",
      "type": "constructor"
    },
    {
      "inputs": [],
      "name": "ApprovalCallerNotOwnerNorApproved",
      "type": "error"
    },
    {
      "inputs": [],
      "name": "ApprovalQueryForNonexistentToken",
      "type": "error"
    },
    {
      "inputs": [],
      "name": "BalanceQueryForZeroAddress",
      "type": "error"
    },
    {
      "inputs": [],
      "name": "MintERC2309QuantityExceedsLimit",
      "type": "error"
    },
    {
      "inputs": [],
      "name": "MintToZeroAddress",
      "type": "error"
    },
    {
      "inputs": [],
      "name": "MintZeroQuantity",
      "type": "error"
    },
    {
      "inputs": [],
      "name": "OwnerQueryForNonexistentToken",
      "type": "error"
    },
    {
      "inputs": [],
      "name": "OwnershipNotInitializedForExtraData",
      "type": "error"
    },
    {
      "inputs": [],
      "name": "TransferCallerNotOwnerNorApproved",
      "type": "error"
    },
    {
      "inputs": [],
      "name": "TransferFromIncorrectOwner",
      "type": "error"
    },
    {
      "inputs": [],
      "name": "TransferToNonERC721ReceiverImplementer",
      "type": "error"
    },
    {
      "inputs": [],
      "name": "TransferToZeroAddress",
      "type": "error"
    },
    {
      "inputs": [],
      "name": "URIQueryForNonexistentToken",
      "type": "error"
    },
    {
      "anonymous": false,
      "inputs": [
        {
          "indexed": true,
          "internalType": "address",
          "name": "owner",
          "type": "address"
        },
        {
          "indexed": true,
          "internalType": "address",
          "name": "approved",
          "type": "address"
        },
        {
          "indexed": true,
          "internalType": "uint256",
          "name": "tokenId",
          "type": "uint256"
        }
      ],
      "name": "Approval",
      "type": "event"
    },
    {
      "anonymous": false,
      "inputs": [
        {
          "indexed": true,
          "internalType": "address",
          "name": "owner",
          "type": "address"
        },
        {
          "indexed": true,
          "internalType": "address",
          "name": "operator",
          "type": "address"
        },
        {
          "indexed": false,
          "internalType": "bool",
          "name": "approved",
          "type": "bool"
        }
      ],
      "name": "ApprovalForAll",
      "type": "event"
    },
    {
      "anonymous": false,
      "inputs": [
        {
          "indexed": true,
          "internalType": "uint256",
          "name": "fromTokenId",
          "type": "uint256"
        },
        {
          "indexed": false,
          "internalType": "uint256",
          "name": "toTokenId",
          "type": "uint256"
        },
        {
          "indexed": true,
          "internalType": "address",
          "name": "from",
          "type": "address"
        },
        {
          "indexed": true,
          "internalType": "address",
          "name": "to",
          "type": "address"
        }
      ],
      "name": "ConsecutiveTransfer",
      "type": "event"
    },
    {
      "anonymous": false,
      "inputs": [
        {
          "indexed": true,
          "internalType": "address",
          "name": "previousOwner",
          "type": "address"
        },
        {
          "indexed": true,
          "internalType": "address",
          "name": "newOwner",
          "type": "address"
        }
      ],
      "name": "OwnershipTransferred",
      "type": "event"
    },
    {
      "anonymous": false,
      "inputs": [
        {
          "indexed": true,
          "internalType": "address",
          "name": "from",
          "type": "address"
        },
        {
          "indexed": true,
          "internalType": "address",
          "name": "to",
          "type": "address"
        },
        {
          "indexed": true,
          "internalType": "uint256",
          "name": "tokenId",
          "type": "uint256"
        }
      ],
      "name": "Transfer",
      "type": "event"
    },
    {
      "inputs": [
        {
          "internalType": "address",
          "name": "",
          "type": "address"
        }
      ],
      "name": "Allowlist",
      "outputs": [
        {
          "internalType": "bool",
          "name": "",
          "type": "bool"
        }
      ],
      "stateMutability": "view",
      "type": "function"
    },
    {
      "inputs": [
        {
          "internalType": "address",
          "name": "",
          "type": "address"
        }
      ],
      "name": "Minted",
      "outputs": [
        {
          "internalType": "uint256",
          "name": "",
          "type": "uint256"
        }
      ],
      "stateMutability": "view",
      "type": "function"
    },
    {
      "inputs": [
        {
          "internalType": "address[]",
          "name": "_addresses",
          "type": "address[]"
        }
      ],
      "name": "addAllowlist",
      "outputs": [],
      "stateMutability": "nonpayable",
      "type": "function"
    },
    {
      "inputs": [],
      "name": "almintPrice",
      "outputs": [
        {
          "internalType": "uint256",
          "name": "",
          "type": "uint256"
        }
      ],
      "stateMutability": "view",
      "type": "function"
    },
    {
      "inputs": [
        {
          "internalType": "address",
          "name": "to",
          "type": "address"
        },
        {
          "internalType": "uint256",
          "name": "tokenId",
          "type": "uint256"
        }
      ],
      "name": "approve",
      "outputs": [],
      "stateMutability": "payable",
      "type": "function"
    },
    {
      "inputs": [
        {
          "internalType": "address",
          "name": "owner",
          "type": "address"
        }
      ],
      "name": "balanceOf",
      "outputs": [
        {
          "internalType": "uint256",
          "name": "",
          "type": "uint256"
        }
      ],
      "stateMutability": "view",
      "type": "function"
    },
    {
      "inputs": [],
      "name": "batchSize",
      "outputs": [
        {
          "internalType": "uint256",
          "name": "",
          "type": "uint256"
        }
      ],
      "stateMutability": "view",
      "type": "function"
    },
    {
      "inputs": [
        {
          "internalType": "uint256",
          "name": "tokenId",
          "type": "uint256"
        }
      ],
      "name": "getApproved",
      "outputs": [
        {
          "internalType": "address",
          "name": "",
          "type": "address"
        }
      ],
      "stateMutability": "view",
      "type": "function"
    },
    {
      "inputs": [
        {
          "internalType": "address",
          "name": "owner",
          "type": "address"
        },
        {
          "internalType": "address",
          "name": "operator",
          "type": "address"
        }
      ],
      "name": "isApprovedForAll",
      "outputs": [
        {
          "internalType": "bool",
          "name": "",
          "type": "bool"
        }
      ],
      "stateMutability": "view",
      "type": "function"
    },
    {
      "inputs": [],
      "name": "maxPerWallet",
      "outputs": [
        {
          "internalType": "uint256",
          "name": "",
          "type": "uint256"
        }
      ],
      "stateMutability": "view",
      "type": "function"
    },
    {
      "inputs": [],
      "name": "mintPrice",
      "outputs": [
        {
          "internalType": "uint256",
          "name": "",
          "type": "uint256"
        }
      ],
      "stateMutability": "view",
      "type": "function"
    },
    {
      "inputs": [],
      "name": "name",
      "outputs": [
        {
          "internalType": "string",
          "name": "",
          "type": "string"
        }
      ],
      "stateMutability": "view",
      "type": "function"
    },
    {
      "inputs": [],
      "name": "owner",
      "outputs": [
        {
          "internalType": "address",
          "name": "",
          "type": "address"
        }
      ],
      "stateMutability": "view",
      "type": "function"
    },
    {
      "inputs": [
        {
          "internalType": "uint256",
          "name": "quantity",
          "type": "uint256"
        },
        {
          "internalType": "address",
          "name": "to",
          "type": "address"
        }
      ],
      "name": "ownerMint",
      "outputs": [],
      "stateMutability": "nonpayable",
      "type": "function"
    },
    {
      "inputs": [
        {
          "internalType": "uint256",
          "name": "tokenId",
          "type": "uint256"
        }
      ],
      "name": "ownerOf",
      "outputs": [
        {
          "internalType": "address",
          "name": "",
          "type": "address"
        }
      ],
      "stateMutability": "view",
      "type": "function"
    },
    {
      "inputs": [
        {
          "internalType": "uint256",
          "name": "quantity",
          "type": "uint256"
        }
      ],
      "name": "preMint",
      "outputs": [],
      "stateMutability": "payable",
      "type": "function"
    },
    {
      "inputs": [],
      "name": "presale",
      "outputs": [
        {
          "internalType": "bool",
          "name": "",
          "type": "bool"
        }
      ],
      "stateMutability": "view",
      "type": "function"
    },
    {
      "inputs": [
        {
          "internalType": "uint256",
          "name": "quantity",
          "type": "uint256"
        }
      ],
      "name": "publicMint",
      "outputs": [],
      "stateMutability": "payable",
      "type": "function"
    },
    {
      "inputs": [],
      "name": "publicsale",
      "outputs": [
        {
          "internalType": "bool",
          "name": "",
          "type": "bool"
        }
      ],
      "stateMutability": "view",
      "type": "function"
    },
    {
      "inputs": [],
      "name": "renounceOwnership",
      "outputs": [],
      "stateMutability": "nonpayable",
      "type": "function"
    },
    {
      "inputs": [],
      "name": "revealed",
      "outputs": [
        {
          "internalType": "bool",
          "name": "",
          "type": "bool"
        }
      ],
      "stateMutability": "view",
      "type": "function"
    },
    {
      "inputs": [
        {
          "internalType": "uint256",
          "name": "_tokenId",
          "type": "uint256"
        },
        {
          "internalType": "uint256",
          "name": "_salePrice",
          "type": "uint256"
        }
      ],
      "name": "royaltyInfo",
      "outputs": [
        {
          "internalType": "address",
          "name": "",
          "type": "address"
        },
        {
          "internalType": "uint256",
          "name": "",
          "type": "uint256"
        }
      ],
      "stateMutability": "view",
      "type": "function"
    },
    {
      "inputs": [
        {
          "internalType": "address",
          "name": "from",
          "type": "address"
        },
        {
          "internalType": "address",
          "name": "to",
          "type": "address"
        },
        {
          "internalType": "uint256",
          "name": "tokenId",
          "type": "uint256"
        }
      ],
      "name": "safeTransferFrom",
      "outputs": [],
      "stateMutability": "payable",
      "type": "function"
    },
    {
      "inputs": [
        {
          "internalType": "address",
          "name": "from",
          "type": "address"
        },
        {
          "internalType": "address",
          "name": "to",
          "type": "address"
        },
        {
          "internalType": "uint256",
          "name": "tokenId",
          "type": "uint256"
        },
        {
          "internalType": "bytes",
          "name": "_data",
          "type": "bytes"
        }
      ],
      "name": "safeTransferFrom",
      "outputs": [],
      "stateMutability": "payable",
      "type": "function"
    },
    {
      "inputs": [
        {
          "internalType": "address",
          "name": "operator",
          "type": "address"
        },
        {
          "internalType": "bool",
          "name": "approved",
          "type": "bool"
        }
      ],
      "name": "setApprovalForAll",
      "outputs": [],
      "stateMutability": "nonpayable",
      "type": "function"
    },
    {
      "inputs": [
        {
          "internalType": "string",
          "name": "_uri",
          "type": "string"
        }
      ],
      "name": "setHiddenBaseURI",
      "outputs": [],
      "stateMutability": "nonpayable",
      "type": "function"
    },
    {
      "inputs": [
        {
          "internalType": "uint256",
          "name": "_maxPerWallet",
          "type": "uint256"
        }
      ],
      "name": "setPreMax",
      "outputs": [],
      "stateMutability": "nonpayable",
      "type": "function"
    },
    {
      "inputs": [
        {
          "internalType": "bool",
          "name": "_state",
          "type": "bool"
        }
      ],
      "name": "setPresale",
      "outputs": [],
      "stateMutability": "nonpayable",
      "type": "function"
    },
    {
      "inputs": [
        {
          "internalType": "uint256",
          "name": "_newPrice",
          "type": "uint256"
        }
      ],
      "name": "setPrice",
      "outputs": [],
      "stateMutability": "nonpayable",
      "type": "function"
    },
    {
      "inputs": [
        {
          "internalType": "uint256",
          "name": "_newPrice",
          "type": "uint256"
        }
      ],
      "name": "setalPrice",
      "outputs": [],
      "stateMutability": "nonpayable",
      "type": "function"
    },
    {
      "inputs": [
        {
          "internalType": "bool",
          "name": "_bool",
          "type": "bool"
        }
      ],
      "name": "setreveal",
      "outputs": [],
      "stateMutability": "nonpayable",
      "type": "function"
    },
    {
      "inputs": [
        {
          "internalType": "bytes4",
          "name": "interfaceId",
          "type": "bytes4"
        }
      ],
      "name": "supportsInterface",
      "outputs": [
        {
          "internalType": "bool",
          "name": "",
          "type": "bool"
        }
      ],
      "stateMutability": "view",
      "type": "function"
    },
    {
      "inputs": [],
      "name": "symbol",
      "outputs": [
        {
          "internalType": "string",
          "name": "",
          "type": "string"
        }
      ],
      "stateMutability": "view",
      "type": "function"
    },
    {
      "inputs": [],
      "name": "tokenCount",
      "outputs": [
        {
          "internalType": "uint256",
          "name": "",
          "type": "uint256"
        }
      ],
      "stateMutability": "view",
      "type": "function"
    },
    {
      "inputs": [
        {
          "internalType": "uint256",
          "name": "tokenId",
          "type": "uint256"
        }
      ],
      "name": "tokenURI",
      "outputs": [
        {
          "internalType": "string",
          "name": "",
          "type": "string"
        }
      ],
      "stateMutability": "view",
      "type": "function"
    },
    {
      "inputs": [],
      "name": "totalSupply",
      "outputs": [
        {
          "internalType": "uint256",
          "name": "",
          "type": "uint256"
        }
      ],
      "stateMutability": "view",
      "type": "function"
    },
    {
      "inputs": [
        {
          "internalType": "address",
          "name": "from",
          "type": "address"
        },
        {
          "internalType": "address",
          "name": "to",
          "type": "address"
        },
        {
          "internalType": "uint256",
          "name": "tokenId",
          "type": "uint256"
        }
      ],
      "name": "transferFrom",
      "outputs": [],
      "stateMutability": "payable",
      "type": "function"
    },
    {
      "inputs": [
        {
          "internalType": "address",
          "name": "newOwner",
          "type": "address"
        }
      ],
      "name": "transferOwnership",
      "outputs": [],
      "stateMutability": "nonpayable",
      "type": "function"
    },
    {
      "inputs": [],
      "name": "withdraw",
      "outputs": [],
      "stateMutability": "nonpayable",
      "type": "function"
    }
  ],
  "bytecode": "0x6080604052661c6bf526340000600b55662386f26fc10000600c556064600d556002600e5560646010556000601160006101000a81548160ff0219169083151502179055506000601160016101000a81548160ff0219169083151502179055506000601160026101000a81548160ff0219169083151502179055503480156200008757600080fd5b506040518060400160405280600581526020017f42656368610000000000000000000000000000000000000000000000000000008152506040518060400160405280600581526020017f42454348410000000000000000000000000000000000000000000000000000008152508160029081620001059190620004ab565b508060039081620001179190620004ab565b50620001286200015e60201b60201c565b600081905550505062000150620001446200016360201b60201c565b6200016b60201b60201c565b6000600f8190555062000592565b600090565b600033905090565b6000600a60009054906101000a900473ffffffffffffffffffffffffffffffffffffffff16905081600a60006101000a81548173ffffffffffffffffffffffffffffffffffffffff021916908373ffffffffffffffffffffffffffffffffffffffff1602179055508173ffffffffffffffffffffffffffffffffffffffff168173ffffffffffffffffffffffffffffffffffffffff167f8be0079c531659141344cd1fd0a4f28419497f9722a3daafe3b4186f6b6457e060405160405180910390a35050565b600081519050919050565b7f4e487b7100000000000000000000000000000000000000000000000000000000600052604160045260246000fd5b7f4e487b7100000000000000000000000000000000000000000000000000000000600052602260045260246000fd5b60006002820490506001821680620002b357607f821691505b602082108103620002c957620002c86200026b565b5b50919050565b60008190508160005260206000209050919050565b60006020601f8301049050919050565b600082821b905092915050565b600060088302620003337fffffffffffffffffffffffffffffffffffffffffffffffffffffffffffffffff82620002f4565b6200033f8683620002f4565b95508019841693508086168417925050509392505050565b6000819050919050565b6000819050919050565b60006200038c62000386620003808462000357565b62000361565b62000357565b9050919050565b6000819050919050565b620003a8836200036b565b620003c0620003b78262000393565b84845462000301565b825550505050565b600090565b620003d7620003c8565b620003e48184846200039d565b505050565b5b818110156200040c5762000400600082620003cd565b600181019050620003ea565b5050565b601f8211156200045b576200042581620002cf565b6200043084620002e4565b8101602085101562000440578190505b620004586200044f85620002e4565b830182620003e9565b50505b505050565b600082821c905092915050565b6000620004806000198460080262000460565b1980831691505092915050565b60006200049b83836200046d565b9150826002028217905092915050565b620004b68262000231565b67ffffffffffffffff811115620004d257620004d16200023c565b5b620004de82546200029a565b620004eb82828562000410565b600060209050601f8311600181146200052357600084156200050e578287015190505b6200051a85826200048d565b8655506200058a565b601f1984166200053386620002cf565b60005b828110156200055d5784890151825560018201915060208501945060208101905062000536565b868310156200057d578489015162000579601f8916826200046d565b8355505b6001600288020188555050505b505050505050565b6136df80620005a26000396000f3fe60806040526004361061022f5760003560e01c80636352211e1161012e578063a22cb465116100ab578063d52c57e01161006f578063d52c57e0146107e9578063e985e9c514610812578063f2fde38b1461084f578063f4daaba114610878578063fdea8e0b146108a35761022f565b8063a22cb46514610713578063b88d4fde1461073c578063b94805a214610758578063c54e73e314610783578063c87b56dd146107ac5761022f565b80638da5cb5b116100f25780638da5cb5b1461062c57806390ddedd51461065757806391b7f5ed1461069457806395d89b41146106bd5780639f181b5e146106e85761022f565b80636352211e146105545780636817c76c1461059157806370a08231146105bc578063715018a6146105f95780638ad433ac146106105761022f565b806323b872dd116101bc5780633ccfd60b116101805780633ccfd60b146104a257806342842e0e146104b9578063453c2310146104d55780634ff39e261461050057806351830227146105295761022f565b806323b872dd146103da5780632617dd4d146103f65780632a55205a1461041f5780632db115441461045d5780632f5d8cad146104795761022f565b8063095ea7b311610203578063095ea7b31461030257806310d50c9f1461031e57806318160ddd1461035b57806320ac685014610386578063225944cb146103af5761022f565b80622c00fe1461023457806301ffc9a71461025d57806306fdde031461029a578063081812fc146102c5575b600080fd5b34801561024057600080fd5b5061025b6004803603810190610256919061248c565b6108ce565b005b34801561026957600080fd5b50610284600480360381019061027f9190612511565b6108e0565b6040516102919190612559565b60405180910390f35b3480156102a657600080fd5b506102af6108f2565b6040516102bc9190612604565b60405180910390f35b3480156102d157600080fd5b506102ec60048036038101906102e7919061248c565b610984565b6040516102f99190612667565b60405180910390f35b61031c600480360381019061031791906126ae565b610a03565b005b34801561032a57600080fd5b50610345600480360381019061034091906126ee565b610b47565b6040516103529190612559565b60405180910390f35b34801561036757600080fd5b50610370610b67565b60405161037d919061272a565b60405180910390f35b34801561039257600080fd5b506103ad60048036038101906103a8919061287a565b610b7e565b005b3480156103bb57600080fd5b506103c4610b99565b6040516103d1919061272a565b60405180910390f35b6103f460048036038101906103ef91906128c3565b610b9f565b005b34801561040257600080fd5b5061041d60048036038101906104189190612976565b610ec1565b005b34801561042b57600080fd5b50610446600480360381019061044191906129c3565b610f6e565b604051610454929190612a03565b60405180910390f35b6104776004803603810190610472919061248c565b611158565b005b34801561048557600080fd5b506104a0600480360381019061049b9190612a58565b611347565b005b3480156104ae57600080fd5b506104b761136c565b005b6104d360048036038101906104ce91906128c3565b61140b565b005b3480156104e157600080fd5b506104ea61142b565b6040516104f7919061272a565b60405180910390f35b34801561050c57600080fd5b506105276004803603810190610522919061248c565b611431565b005b34801561053557600080fd5b5061053e611443565b60405161054b9190612559565b60405180910390f35b34801561056057600080fd5b5061057b6004803603810190610576919061248c565b611456565b6040516105889190612667565b60405180910390f35b34801561059d57600080fd5b506105a6611468565b6040516105b3919061272a565b60405180910390f35b3480156105c857600080fd5b506105e360048036038101906105de91906126ee565b61146e565b6040516105f0919061272a565b60405180910390f35b34801561060557600080fd5b5061060e611526565b005b61062a6004803603810190610625919061248c565b61153a565b005b34801561063857600080fd5b506106416115b6565b60405161064e9190612667565b60405180910390f35b34801561066357600080fd5b5061067e600480360381019061067991906126ee565b6115e0565b60405161068b919061272a565b60405180910390f35b3480156106a057600080fd5b506106bb60048036038101906106b6919061248c565b6115f8565b005b3480156106c957600080fd5b506106d261160a565b6040516106df9190612604565b60405180910390f35b3480156106f457600080fd5b506106fd61169c565b60405161070a919061272a565b60405180910390f35b34801561071f57600080fd5b5061073a60048036038101906107359190612a85565b6116a2565b005b61075660048036038101906107519190612b66565b6117ad565b005b34801561076457600080fd5b5061076d611820565b60405161077a9190612559565b60405180910390f35b34801561078f57600080fd5b506107aa60048036038101906107a59190612a58565b611833565b005b3480156107b857600080fd5b506107d360048036038101906107ce919061248c565b611858565b6040516107e09190612604565b60405180910390f35b3480156107f557600080fd5b50610810600480360381019061080b9190612be9565b6118ff565b005b34801561081e57600080fd5b5061083960048036038101906108349190612c29565b611980565b6040516108469190612559565b60405180910390f35b34801561085b57600080fd5b50610876600480360381019061087191906126ee565b611a14565b005b34801561088457600080fd5b5061088d611a97565b60405161089a919061272a565b60405180910390f35b3480156108af57600080fd5b506108b8611a9d565b6040516108c59190612559565b60405180910390f35b6108d6611ab0565b80600b8190555050565b60006108eb82611b2e565b9050919050565b60606002805461090190612c98565b80601f016020809104026020016040519081016040528092919081815260200182805461092d90612c98565b801561097a5780601f1061094f5761010080835404028352916020019161097a565b820191906000526020600020905b81548152906001019060200180831161095d57829003601f168201915b5050505050905090565b600061098f82611ba8565b6109c5576040517fcf4700e400000000000000000000000000000000000000000000000000000000815260040160405180910390fd5b6006600083815260200190815260200160002060000160009054906101000a900473ffffffffffffffffffffffffffffffffffffffff169050919050565b6000610a0e82611456565b90508073ffffffffffffffffffffffffffffffffffffffff16610a2f611c07565b73ffffffffffffffffffffffffffffffffffffffff1614610a9257610a5b81610a56611c07565b611980565b610a91576040517fcfb3b94200000000000000000000000000000000000000000000000000000000815260040160405180910390fd5b5b826006600084815260200190815260200160002060000160006101000a81548173ffffffffffffffffffffffffffffffffffffffff021916908373ffffffffffffffffffffffffffffffffffffffff160217905550818373ffffffffffffffffffffffffffffffffffffffff168273ffffffffffffffffffffffffffffffffffffffff167f8c5be1e5ebec7d5bd14f71427d1e84f3dd0314c0f7b2291e5b200ac8c7c3b92560405160405180910390a4505050565b60136020528060005260406000206000915054906101000a900460ff1681565b6000610b71611c0f565b6001546000540303905090565b610b86611ab0565b8060129081610b959190612e75565b5050565b600b5481565b6000610baa82611c14565b90508373ffffffffffffffffffffffffffffffffffffffff168173ffffffffffffffffffffffffffffffffffffffff1614610c11576040517fa114810000000000000000000000000000000000000000000000000000000000815260040160405180910390fd5b600080610c1d84611ce0565b91509150610c338187610c2e611c07565b611d07565b610c7f57610c4886610c43611c07565b611980565b610c7e576040517f59c896be00000000000000000000000000000000000000000000000000000000815260040160405180910390fd5b5b600073ffffffffffffffffffffffffffffffffffffffff168573ffffffffffffffffffffffffffffffffffffffff1603610ce5576040517fea553b3400000000000000000000000000000000000000000000000000000000815260040160405180910390fd5b610cf28686866001611d4b565b8015610cfd57600082555b600560008773ffffffffffffffffffffffffffffffffffffffff1673ffffffffffffffffffffffffffffffffffffffff168152602001908152602001600020600081546001900391905081905550600560008673ffffffffffffffffffffffffffffffffffffffff1673ffffffffffffffffffffffffffffffffffffffff1681526020019081526020016000206000815460010191905081905550610dcb85610da7888887611d51565b7c020000000000000000000000000000000000000000000000000000000017611d79565b600460008681526020019081526020016000208190555060007c0200000000000000000000000000000000000000000000000000000000841603610e515760006001850190506000600460008381526020019081526020016000205403610e4f576000548114610e4e578360046000838152602001908152602001600020819055505b5b505b838573ffffffffffffffffffffffffffffffffffffffff168773ffffffffffffffffffffffffffffffffffffffff167fddf252ad1be2c89b69c2b068fc378daa952ba7f163c4a11628f55a4df523b3ef60405160405180910390a4610eb98686866001611da4565b505050505050565b610ec9611ab0565b60005b82829050811015610f6957600160136000858585818110610ef057610eef612f47565b5b9050602002016020810190610f0591906126ee565b73ffffffffffffffffffffffffffffffffffffffff1673ffffffffffffffffffffffffffffffffffffffff16815260200190815260200160002060006101000a81548160ff0219169083151502179055508080610f6190612fa5565b915050610ecc565b505050565b6000806000600960008681526020019081526020016000206040518060400160405290816000820160009054906101000a900473ffffffffffffffffffffffffffffffffffffffff1673ffffffffffffffffffffffffffffffffffffffff1673ffffffffffffffffffffffffffffffffffffffff1681526020016000820160149054906101000a90046bffffffffffffffffffffffff166bffffffffffffffffffffffff166bffffffffffffffffffffffff16815250509050600073ffffffffffffffffffffffffffffffffffffffff16816000015173ffffffffffffffffffffffffffffffffffffffff16036111035760086040518060400160405290816000820160009054906101000a900473ffffffffffffffffffffffffffffffffffffffff1673ffffffffffffffffffffffffffffffffffffffff1673ffffffffffffffffffffffffffffffffffffffff1681526020016000820160149054906101000a90046bffffffffffffffffffffffff166bffffffffffffffffffffffff166bffffffffffffffffffffffff168152505090505b600061110d611daa565b6bffffffffffffffffffffffff1682602001516bffffffffffffffffffffffff16866111399190612fed565b611143919061305e565b90508160000151819350935050509250929050565b601160019054906101000a900460ff16156111a8576040517f08c379a000000000000000000000000000000000000000000000000000000000815260040161119f906130db565b60405180910390fd5b601054600f54826111b991906130fb565b11156111fa576040517f08c379a00000000000000000000000000000000000000000000000000000000081526004016111f19061317b565b60405180910390fd5b80600e54101561123f576040517f08c379a0000000000000000000000000000000000000000000000000000000008152600401611236906131e7565b60405180910390fd5b601360003373ffffffffffffffffffffffffffffffffffffffff1673ffffffffffffffffffffffffffffffffffffffff16815260200190815260200160002060009054906101000a900460ff166112cb576040517f08c379a00000000000000000000000000000000000000000000000000000000081526004016112c290613253565b60405180910390fd5b80601460003373ffffffffffffffffffffffffffffffffffffffff1673ffffffffffffffffffffffffffffffffffffffff168152602001908152602001600020600082825461131a91906130fb565b9250508190555061132b3382611db4565b80600f600082825461133d91906130fb565b9250508190555050565b61134f611ab0565b80601160006101000a81548160ff02191690831515021790555050565b611374611ab0565b600047116113b7576040517f08c379a00000000000000000000000000000000000000000000000000000000081526004016113ae906132bf565b60405180910390fd5b7371787469879aa8c5fe80ee3b6aae844d647daaa073ffffffffffffffffffffffffffffffffffffffff166108fc479081150290604051600060405180830381858888f1935050505061140957600080fd5b565b611426838383604051806020016040528060008152506117ad565b505050565b600e5481565b611439611ab0565b80600e8190555050565b601160009054906101000a900460ff1681565b600061146182611c14565b9050919050565b600c5481565b60008073ffffffffffffffffffffffffffffffffffffffff168273ffffffffffffffffffffffffffffffffffffffff16036114d5576040517f8f4eb60400000000000000000000000000000000000000000000000000000000815260040160405180910390fd5b67ffffffffffffffff600560008473ffffffffffffffffffffffffffffffffffffffff1673ffffffffffffffffffffffffffffffffffffffff16815260200190815260200160002054169050919050565b61152e611ab0565b6115386000611dd2565b565b80601460003373ffffffffffffffffffffffffffffffffffffffff1673ffffffffffffffffffffffffffffffffffffffff168152602001908152602001600020600082825461158991906130fb565b9250508190555061159a3382611db4565b80600f60008282546115ac91906130fb565b9250508190555050565b6000600a60009054906101000a900473ffffffffffffffffffffffffffffffffffffffff16905090565b60146020528060005260406000206000915090505481565b611600611ab0565b80600c8190555050565b60606003805461161990612c98565b80601f016020809104026020016040519081016040528092919081815260200182805461164590612c98565b80156116925780601f1061166757610100808354040283529160200191611692565b820191906000526020600020905b81548152906001019060200180831161167557829003601f168201915b5050505050905090565b600f5481565b80600760006116af611c07565b73ffffffffffffffffffffffffffffffffffffffff1673ffffffffffffffffffffffffffffffffffffffff16815260200190815260200160002060008473ffffffffffffffffffffffffffffffffffffffff1673ffffffffffffffffffffffffffffffffffffffff16815260200190815260200160002060006101000a81548160ff0219169083151502179055508173ffffffffffffffffffffffffffffffffffffffff1661175c611c07565b73ffffffffffffffffffffffffffffffffffffffff167f17307eab39ab6107e8899845ad3d59bd9653f200f220920489ca2b5937696c31836040516117a19190612559565b60405180910390a35050565b6117b8848484610b9f565b60008373ffffffffffffffffffffffffffffffffffffffff163b1461181a576117e384848484611e98565b611819576040517fd1a57ed600000000000000000000000000000000000000000000000000000000815260040160405180910390fd5b5b50505050565b601160029054906101000a900460ff1681565b61183b611ab0565b80601160016101000a81548160ff02191690831515021790555050565b606061186382611ba8565b6118a2576040517f08c379a000000000000000000000000000000000000000000000000000000000815260040161189990613351565b60405180910390fd5b60006118ac611fe8565b905060008151116118cc57604051806020016040528060008152506118f7565b806118d684611fff565b6040516020016118e79291906133ad565b6040516020818303038152906040525b915050919050565b611907611ab0565b601054600f548361191891906130fb565b1115611959576040517f08c379a000000000000000000000000000000000000000000000000000000000815260040161195090613443565b60405180910390fd5b6119638183611db4565b81600f600082825461197591906130fb565b925050819055505050565b6000600760008473ffffffffffffffffffffffffffffffffffffffff1673ffffffffffffffffffffffffffffffffffffffff16815260200190815260200160002060008373ffffffffffffffffffffffffffffffffffffffff1673ffffffffffffffffffffffffffffffffffffffff16815260200190815260200160002060009054906101000a900460ff16905092915050565b611a1c611ab0565b600073ffffffffffffffffffffffffffffffffffffffff168173ffffffffffffffffffffffffffffffffffffffff1603611a8b576040517f08c379a0000000000000000000000000000000000000000000000000000000008152600401611a82906134d5565b60405180910390fd5b611a9481611dd2565b50565b600d5481565b601160019054906101000a900460ff1681565b611ab861215f565b73ffffffffffffffffffffffffffffffffffffffff16611ad66115b6565b73ffffffffffffffffffffffffffffffffffffffff1614611b2c576040517f08c379a0000000000000000000000000000000000000000000000000000000008152600401611b2390613541565b60405180910390fd5b565b60007f2a55205a000000000000000000000000000000000000000000000000000000007bffffffffffffffffffffffffffffffffffffffffffffffffffffffff1916827bffffffffffffffffffffffffffffffffffffffffffffffffffffffff19161480611ba15750611ba082612167565b5b9050919050565b600081611bb3611c0f565b11158015611bc2575060005482105b8015611c00575060007c0100000000000000000000000000000000000000000000000000000000600460008581526020019081526020016000205416145b9050919050565b600033905090565b600090565b60008082905080611c23611c0f565b11611ca957600054811015611ca85760006004600083815260200190815260200160002054905060007c0100000000000000000000000000000000000000000000000000000000821603611ca6575b60008103611c9c576004600083600190039350838152602001908152602001600020549050611c72565b8092505050611cdb565b505b5b6040517fdf2d9b4200000000000000000000000000000000000000000000000000000000815260040160405180910390fd5b919050565b60008060006006600085815260200190815260200160002090508092508254915050915091565b600073ffffffffffffffffffffffffffffffffffffffff8316925073ffffffffffffffffffffffffffffffffffffffff821691508382148383141790509392505050565b50505050565b60008060e883901c905060e8611d688686846121d1565b62ffffff16901b9150509392505050565b600073ffffffffffffffffffffffffffffffffffffffff83169250814260a01b178317905092915050565b50505050565b6000612710905090565b611dce8282604051806020016040528060008152506121da565b5050565b6000600a60009054906101000a900473ffffffffffffffffffffffffffffffffffffffff16905081600a60006101000a81548173ffffffffffffffffffffffffffffffffffffffff021916908373ffffffffffffffffffffffffffffffffffffffff1602179055508173ffffffffffffffffffffffffffffffffffffffff168173ffffffffffffffffffffffffffffffffffffffff167f8be0079c531659141344cd1fd0a4f28419497f9722a3daafe3b4186f6b6457e060405160405180910390a35050565b60008373ffffffffffffffffffffffffffffffffffffffff1663150b7a02611ebe611c07565b8786866040518563ffffffff1660e01b8152600401611ee094939291906135b6565b6020604051808303816000875af1925050508015611f1c57506040513d601f19601f82011682018060405250810190611f199190613617565b60015b611f95573d8060008114611f4c576040519150601f19603f3d011682016040523d82523d6000602084013e611f51565b606091505b506000815103611f8d576040517fd1a57ed600000000000000000000000000000000000000000000000000000000815260040160405180910390fd5b805181602001fd5b63150b7a0260e01b7bffffffffffffffffffffffffffffffffffffffffffffffffffffffff1916817bffffffffffffffffffffffffffffffffffffffffffffffffffffffff191614915050949350505050565b606060405180602001604052806000815250905090565b606060008203612046576040518060400160405280600181526020017f3000000000000000000000000000000000000000000000000000000000000000815250905061215a565b600082905060005b6000821461207857808061206190612fa5565b915050600a82612071919061305e565b915061204e565b60008167ffffffffffffffff8111156120945761209361274f565b5b6040519080825280601f01601f1916602001820160405280156120c65781602001600182028036833780820191505090505b5090505b60008514612153576001826120df9190613644565b9150600a856120ee9190613678565b60306120fa91906130fb565b60f81b8183815181106121105761210f612f47565b5b60200101907effffffffffffffffffffffffffffffffffffffffffffffffffffffffffffff1916908160001a905350600a8561214c919061305e565b94506120ca565b8093505050505b919050565b600033905090565b60007f01ffc9a7000000000000000000000000000000000000000000000000000000007bffffffffffffffffffffffffffffffffffffffffffffffffffffffff1916827bffffffffffffffffffffffffffffffffffffffffffffffffffffffff1916149050919050565b60009392505050565b6121e48383612277565b60008373ffffffffffffffffffffffffffffffffffffffff163b1461227257600080549050600083820390505b6122246000868380600101945086611e98565b61225a576040517fd1a57ed600000000000000000000000000000000000000000000000000000000815260040160405180910390fd5b81811061221157816000541461226f57600080fd5b50505b505050565b600080549050600082036122b7576040517fb562e8dd00000000000000000000000000000000000000000000000000000000815260040160405180910390fd5b6122c46000848385611d4b565b600160406001901b178202600560008573ffffffffffffffffffffffffffffffffffffffff1673ffffffffffffffffffffffffffffffffffffffff1681526020019081526020016000206000828254019250508190555061233b8361232c6000866000611d51565b61233585612432565b17611d79565b6004600083815260200190815260200160002081905550600080838301905073ffffffffffffffffffffffffffffffffffffffff85169150828260007fddf252ad1be2c89b69c2b068fc378daa952ba7f163c4a11628f55a4df523b3ef600080a4600183015b8181146123dc57808360007fddf252ad1be2c89b69c2b068fc378daa952ba7f163c4a11628f55a4df523b3ef600080a46001810190506123a1565b5060008203612417576040517f2e07630000000000000000000000000000000000000000000000000000000000815260040160405180910390fd5b80600081905550505061242d6000848385611da4565b505050565b60006001821460e11b9050919050565b6000604051905090565b600080fd5b600080fd5b6000819050919050565b61246981612456565b811461247457600080fd5b50565b60008135905061248681612460565b92915050565b6000602082840312156124a2576124a161244c565b5b60006124b084828501612477565b91505092915050565b60007fffffffff0000000000000000000000000000000000000000000000000000000082169050919050565b6124ee816124b9565b81146124f957600080fd5b50565b60008135905061250b816124e5565b92915050565b6000602082840312156125275761252661244c565b5b6000612535848285016124fc565b91505092915050565b60008115159050919050565b6125538161253e565b82525050565b600060208201905061256e600083018461254a565b92915050565b600081519050919050565b600082825260208201905092915050565b60005b838110156125ae578082015181840152602081019050612593565b60008484015250505050565b6000601f19601f8301169050919050565b60006125d682612574565b6125e0818561257f565b93506125f0818560208601612590565b6125f9816125ba565b840191505092915050565b6000602082019050818103600083015261261e81846125cb565b905092915050565b600073ffffffffffffffffffffffffffffffffffffffff82169050919050565b600061265182612626565b9050919050565b61266181612646565b82525050565b600060208201905061267c6000830184612658565b92915050565b61268b81612646565b811461269657600080fd5b50565b6000813590506126a881612682565b92915050565b600080604083850312156126c5576126c461244c565b5b60006126d385828601612699565b92505060206126e485828601612477565b9150509250929050565b6000602082840312156127045761270361244c565b5b600061271284828501612699565b91505092915050565b61272481612456565b82525050565b600060208201905061273f600083018461271b565b92915050565b600080fd5b600080fd5b7f4e487b7100000000000000000000000000000000000000000000000000000000600052604160045260246000fd5b612787826125ba565b810181811067ffffffffffffffff821117156127a6576127a561274f565b5b80604052505050565b60006127b9612442565b90506127c5828261277e565b919050565b600067ffffffffffffffff8211156127e5576127e461274f565b5b6127ee826125ba565b9050602081019050919050565b82818337600083830152505050565b600061281d612818846127ca565b6127af565b9050828152602081018484840111156128395761283861274a565b5b6128448482856127fb565b509392505050565b600082601f83011261286157612860612745565b5b813561287184826020860161280a565b91505092915050565b6000602082840312156128905761288f61244c565b5b600082013567ffffffffffffffff8111156128ae576128ad612451565b5b6128ba8482850161284c565b91505092915050565b6000806000606084860312156128dc576128db61244c565b5b60006128ea86828701612699565b93505060206128fb86828701612699565b925050604061290c86828701612477565b9150509250925092565b600080fd5b600080fd5b60008083601f84011261293657612935612745565b5b8235905067ffffffffffffffff81111561295357612952612916565b5b60208301915083602082028301111561296f5761296e61291b565b5b9250929050565b6000806020838503121561298d5761298c61244c565b5b600083013567ffffffffffffffff8111156129ab576129aa612451565b5b6129b785828601612920565b92509250509250929050565b600080604083850312156129da576129d961244c565b5b60006129e885828601612477565b92505060206129f985828601612477565b9150509250929050565b6000604082019050612a186000830185612658565b612a25602083018461271b565b9392505050565b612a358161253e565b8114612a4057600080fd5b50565b600081359050612a5281612a2c565b92915050565b600060208284031215612a6e57612a6d61244c565b5b6000612a7c84828501612a43565b91505092915050565b60008060408385031215612a9c57612a9b61244c565b5b6000612aaa85828601612699565b9250506020612abb85828601612a43565b9150509250929050565b600067ffffffffffffffff821115612ae057612adf61274f565b5b612ae9826125ba565b9050602081019050919050565b6000612b09612b0484612ac5565b6127af565b905082815260208101848484011115612b2557612b2461274a565b5b612b308482856127fb565b509392505050565b600082601f830112612b4d57612b4c612745565b5b8135612b5d848260208601612af6565b91505092915050565b60008060008060808587031215612b8057612b7f61244c565b5b6000612b8e87828801612699565b9450506020612b9f87828801612699565b9350506040612bb087828801612477565b925050606085013567ffffffffffffffff811115612bd157612bd0612451565b5b612bdd87828801612b38565b91505092959194509250565b60008060408385031215612c0057612bff61244c565b5b6000612c0e85828601612477565b9250506020612c1f85828601612699565b9150509250929050565b60008060408385031215612c4057612c3f61244c565b5b6000612c4e85828601612699565b9250506020612c5f85828601612699565b9150509250929050565b7f4e487b7100000000000000000000000000000000000000000000000000000000600052602260045260246000fd5b60006002820490506001821680612cb057607f821691505b602082108103612cc357612cc2612c69565b5b50919050565b60008190508160005260206000209050919050565b60006020601f8301049050919050565b600082821b905092915050565b600060088302612d2b7fffffffffffffffffffffffffffffffffffffffffffffffffffffffffffffffff82612cee565b612d358683612cee565b95508019841693508086168417925050509392505050565b6000819050919050565b6000612d72612d6d612d6884612456565b612d4d565b612456565b9050919050565b6000819050919050565b612d8c83612d57565b612da0612d9882612d79565b848454612cfb565b825550505050565b600090565b612db5612da8565b612dc0818484612d83565b505050565b5b81811015612de457612dd9600082612dad565b600181019050612dc6565b5050565b601f821115612e2957612dfa81612cc9565b612e0384612cde565b81016020851015612e12578190505b612e26612e1e85612cde565b830182612dc5565b50505b505050565b600082821c905092915050565b6000612e4c60001984600802612e2e565b1980831691505092915050565b6000612e658383612e3b565b9150826002028217905092915050565b612e7e82612574565b67ffffffffffffffff811115612e9757612e9661274f565b5b612ea18254612c98565b612eac828285612de8565b600060209050601f831160018114612edf5760008415612ecd578287015190505b612ed78582612e59565b865550612f3f565b601f198416612eed86612cc9565b60005b82811015612f1557848901518255600182019150602085019450602081019050612ef0565b86831015612f325784890151612f2e601f891682612e3b565b8355505b6001600288020188555050505b505050505050565b7f4e487b7100000000000000000000000000000000000000000000000000000000600052603260045260246000fd5b7f4e487b7100000000000000000000000000000000000000000000000000000000600052601160045260246000fd5b6000612fb082612456565b91507fffffffffffffffffffffffffffffffffffffffffffffffffffffffffffffffff8203612fe257612fe1612f76565b5b600182019050919050565b6000612ff882612456565b915061300383612456565b925082820261301181612456565b9150828204841483151761302857613027612f76565b5b5092915050565b7f4e487b7100000000000000000000000000000000000000000000000000000000600052601260045260246000fd5b600061306982612456565b915061307483612456565b9250826130845761308361302f565b5b828204905092915050565b7f5075626c6963206d696e74206973206e6f74207965742e000000000000000000600082015250565b60006130c560178361257f565b91506130d08261308f565b602082019050919050565b600060208201905081810360008301526130f4816130b8565b9050919050565b600061310682612456565b915061311183612456565b925082820190508082111561312957613128612f76565b5b92915050565b7f536f6c64206f7574000000000000000000000000000000000000000000000000600082015250565b600061316560088361257f565b91506131708261312f565b602082019050919050565b6000602082019050818103600083015261319481613158565b9050919050565b7f7075626c69634d696e743a2032206d6178207065722074780000000000000000600082015250565b60006131d160188361257f565b91506131dc8261319b565b602082019050919050565b60006020820190508181036000830152613200816131c4565b9050919050565b7f4e6f20416c6c6f776c6973740000000000000000000000000000000000000000600082015250565b600061323d600c8361257f565b915061324882613207565b602082019050919050565b6000602082019050818103600083015261326c81613230565b9050919050565b7f4e6f20626172616e636500000000000000000000000000000000000000000000600082015250565b60006132a9600a8361257f565b91506132b482613273565b602082019050919050565b600060208201905081810360008301526132d88161329c565b9050919050565b7f4552433732314d657461646174613a2055524920717565727920666f72206e6f60008201527f6e6578697374656e7420746f6b656e0000000000000000000000000000000000602082015250565b600061333b602f8361257f565b9150613346826132df565b604082019050919050565b6000602082019050818103600083015261336a8161332e565b9050919050565b600081905092915050565b600061338782612574565b6133918185613371565b93506133a1818560208601612590565b80840191505092915050565b60006133b9828561337c565b91506133c5828461337c565b91508190509392505050565b7f746f6f206d616e7920616c7265616479206d696e746564206265666f7265207060008201527f61746e6572206d696e7400000000000000000000000000000000000000000000602082015250565b600061342d602a8361257f565b9150613438826133d1565b604082019050919050565b6000602082019050818103600083015261345c81613420565b9050919050565b7f4f776e61626c653a206e6577206f776e657220697320746865207a65726f206160008201527f6464726573730000000000000000000000000000000000000000000000000000602082015250565b60006134bf60268361257f565b91506134ca82613463565b604082019050919050565b600060208201905081810360008301526134ee816134b2565b9050919050565b7f4f776e61626c653a2063616c6c6572206973206e6f7420746865206f776e6572600082015250565b600061352b60208361257f565b9150613536826134f5565b602082019050919050565b6000602082019050818103600083015261355a8161351e565b9050919050565b600081519050919050565b600082825260208201905092915050565b600061358882613561565b613592818561356c565b93506135a2818560208601612590565b6135ab816125ba565b840191505092915050565b60006080820190506135cb6000830187612658565b6135d86020830186612658565b6135e5604083018561271b565b81810360608301526135f7818461357d565b905095945050505050565b600081519050613611816124e5565b92915050565b60006020828403121561362d5761362c61244c565b5b600061363b84828501613602565b91505092915050565b600061364f82612456565b915061365a83612456565b925082820390508181111561367257613671612f76565b5b92915050565b600061368382612456565b915061368e83612456565b92508261369e5761369d61302f565b5b82820690509291505056fea2646970667358221220541f9df2ef2616f4770102913317f8826eece85c731f74715fc16ea97eeede0864736f6c63430008110033",
  "linkReferences": {},
  "deployedLinkReferences": {}
}