{
  "_format": "hh-sol-artifact-1",
  "contractName": "Becha",
  "sourceName": "contracts/becha.sol",
  "abi": [
    {
      "inputs": [],
      "stateMutability": "nonpayable",
      "type": "constructor"
    },
    {
      "inputs": [],
      "name": "ApprovalCallerNotOwnerNorApproved",
      "type": "error"
    },
    {
      "inputs": [],
      "name": "ApprovalQueryForNonexistentToken",
      "type": "error"
    },
    {
      "inputs": [],
      "name": "BalanceQueryForZeroAddress",
      "type": "error"
    },
    {
      "inputs": [],
      "name": "MintERC2309QuantityExceedsLimit",
      "type": "error"
    },
    {
      "inputs": [],
      "name": "MintToZeroAddress",
      "type": "error"
    },
    {
      "inputs": [],
      "name": "MintZeroQuantity",
      "type": "error"
    },
    {
      "inputs": [],
      "name": "OwnerQueryForNonexistentToken",
      "type": "error"
    },
    {
      "inputs": [],
      "name": "OwnershipNotInitializedForExtraData",
      "type": "error"
    },
    {
      "inputs": [],
      "name": "TransferCallerNotOwnerNorApproved",
      "type": "error"
    },
    {
      "inputs": [],
      "name": "TransferFromIncorrectOwner",
      "type": "error"
    },
    {
      "inputs": [],
      "name": "TransferToNonERC721ReceiverImplementer",
      "type": "error"
    },
    {
      "inputs": [],
      "name": "TransferToZeroAddress",
      "type": "error"
    },
    {
      "inputs": [],
      "name": "URIQueryForNonexistentToken",
      "type": "error"
    },
    {
      "anonymous": false,
      "inputs": [
        {
          "indexed": true,
          "internalType": "address",
          "name": "owner",
          "type": "address"
        },
        {
          "indexed": true,
          "internalType": "address",
          "name": "approved",
          "type": "address"
        },
        {
          "indexed": true,
          "internalType": "uint256",
          "name": "tokenId",
          "type": "uint256"
        }
      ],
      "name": "Approval",
      "type": "event"
    },
    {
      "anonymous": false,
      "inputs": [
        {
          "indexed": true,
          "internalType": "address",
          "name": "owner",
          "type": "address"
        },
        {
          "indexed": true,
          "internalType": "address",
          "name": "operator",
          "type": "address"
        },
        {
          "indexed": false,
          "internalType": "bool",
          "name": "approved",
          "type": "bool"
        }
      ],
      "name": "ApprovalForAll",
      "type": "event"
    },
    {
      "anonymous": false,
      "inputs": [
        {
          "indexed": true,
          "internalType": "uint256",
          "name": "fromTokenId",
          "type": "uint256"
        },
        {
          "indexed": false,
          "internalType": "uint256",
          "name": "toTokenId",
          "type": "uint256"
        },
        {
          "indexed": true,
          "internalType": "address",
          "name": "from",
          "type": "address"
        },
        {
          "indexed": true,
          "internalType": "address",
          "name": "to",
          "type": "address"
        }
      ],
      "name": "ConsecutiveTransfer",
      "type": "event"
    },
    {
      "anonymous": false,
      "inputs": [
        {
          "indexed": true,
          "internalType": "address",
          "name": "previousOwner",
          "type": "address"
        },
        {
          "indexed": true,
          "internalType": "address",
          "name": "newOwner",
          "type": "address"
        }
      ],
      "name": "OwnershipTransferred",
      "type": "event"
    },
    {
      "anonymous": false,
      "inputs": [
        {
          "indexed": true,
          "internalType": "address",
          "name": "from",
          "type": "address"
        },
        {
          "indexed": true,
          "internalType": "address",
          "name": "to",
          "type": "address"
        },
        {
          "indexed": true,
          "internalType": "uint256",
          "name": "tokenId",
          "type": "uint256"
        }
      ],
      "name": "Transfer",
      "type": "event"
    },
    {
      "inputs": [
        {
          "internalType": "address",
          "name": "",
          "type": "address"
        }
      ],
      "name": "Allowlists",
      "outputs": [
        {
          "internalType": "uint256",
          "name": "",
          "type": "uint256"
        }
      ],
      "stateMutability": "view",
      "type": "function"
    },
    {
      "inputs": [
        {
          "internalType": "address",
          "name": "",
          "type": "address"
        }
      ],
      "name": "Minted",
      "outputs": [
        {
          "internalType": "uint256",
          "name": "",
          "type": "uint256"
        }
      ],
      "stateMutability": "view",
      "type": "function"
    },
    {
      "inputs": [],
      "name": "almintPrice",
      "outputs": [
        {
          "internalType": "uint256",
          "name": "",
          "type": "uint256"
        }
      ],
      "stateMutability": "view",
      "type": "function"
    },
    {
      "inputs": [
        {
          "internalType": "address",
          "name": "to",
          "type": "address"
        },
        {
          "internalType": "uint256",
          "name": "tokenId",
          "type": "uint256"
        }
      ],
      "name": "approve",
      "outputs": [],
      "stateMutability": "payable",
      "type": "function"
    },
    {
      "inputs": [
        {
          "internalType": "address",
          "name": "owner",
          "type": "address"
        }
      ],
      "name": "balanceOf",
      "outputs": [
        {
          "internalType": "uint256",
          "name": "",
          "type": "uint256"
        }
      ],
      "stateMutability": "view",
      "type": "function"
    },
    {
      "inputs": [],
      "name": "baseExtension",
      "outputs": [
        {
          "internalType": "string",
          "name": "",
          "type": "string"
        }
      ],
      "stateMutability": "view",
      "type": "function"
    },
    {
      "inputs": [
        {
          "internalType": "address",
          "name": "addr",
          "type": "address"
        }
      ],
      "name": "deleteWL",
      "outputs": [],
      "stateMutability": "nonpayable",
      "type": "function"
    },
    {
      "inputs": [
        {
          "internalType": "uint256",
          "name": "tokenId",
          "type": "uint256"
        }
      ],
      "name": "getApproved",
      "outputs": [
        {
          "internalType": "address",
          "name": "",
          "type": "address"
        }
      ],
      "stateMutability": "view",
      "type": "function"
    },
    {
      "inputs": [
        {
          "internalType": "address",
          "name": "owner",
          "type": "address"
        },
        {
          "internalType": "address",
          "name": "operator",
          "type": "address"
        }
      ],
      "name": "isApprovedForAll",
      "outputs": [
        {
          "internalType": "bool",
          "name": "",
          "type": "bool"
        }
      ],
      "stateMutability": "view",
      "type": "function"
    },
    {
      "inputs": [],
      "name": "maxPerWallet",
      "outputs": [
        {
          "internalType": "uint256",
          "name": "",
          "type": "uint256"
        }
      ],
      "stateMutability": "view",
      "type": "function"
    },
    {
      "inputs": [],
      "name": "maxSupply",
      "outputs": [
        {
          "internalType": "uint256",
          "name": "",
          "type": "uint256"
        }
      ],
      "stateMutability": "view",
      "type": "function"
    },
    {
      "inputs": [],
      "name": "mintPrice",
      "outputs": [
        {
          "internalType": "uint256",
          "name": "",
          "type": "uint256"
        }
      ],
      "stateMutability": "view",
      "type": "function"
    },
    {
      "inputs": [],
      "name": "name",
      "outputs": [
        {
          "internalType": "string",
          "name": "",
          "type": "string"
        }
      ],
      "stateMutability": "view",
      "type": "function"
    },
    {
      "inputs": [],
      "name": "owner",
      "outputs": [
        {
          "internalType": "address",
          "name": "",
          "type": "address"
        }
      ],
      "stateMutability": "view",
      "type": "function"
    },
    {
      "inputs": [
        {
          "internalType": "uint256",
          "name": "count",
          "type": "uint256"
        }
      ],
      "name": "ownerMint",
      "outputs": [],
      "stateMutability": "nonpayable",
      "type": "function"
    },
    {
      "inputs": [
        {
          "internalType": "uint256",
          "name": "tokenId",
          "type": "uint256"
        }
      ],
      "name": "ownerOf",
      "outputs": [
        {
          "internalType": "address",
          "name": "",
          "type": "address"
        }
      ],
      "stateMutability": "view",
      "type": "function"
    },
    {
      "inputs": [
        {
          "internalType": "uint256",
          "name": "quantity",
          "type": "uint256"
        }
      ],
      "name": "preMint",
      "outputs": [],
      "stateMutability": "payable",
      "type": "function"
    },
    {
      "inputs": [],
      "name": "presale",
      "outputs": [
        {
          "internalType": "bool",
          "name": "",
          "type": "bool"
        }
      ],
      "stateMutability": "view",
      "type": "function"
    },
    {
      "inputs": [
        {
          "internalType": "uint256",
          "name": "quantity",
          "type": "uint256"
        }
      ],
      "name": "publicMint",
      "outputs": [],
      "stateMutability": "payable",
      "type": "function"
    },
    {
      "inputs": [],
      "name": "publicsale",
      "outputs": [
        {
          "internalType": "bool",
          "name": "",
          "type": "bool"
        }
      ],
      "stateMutability": "view",
      "type": "function"
    },
    {
      "inputs": [
        {
          "internalType": "address[]",
          "name": "list",
          "type": "address[]"
        }
      ],
      "name": "pushMultiWL",
      "outputs": [],
      "stateMutability": "nonpayable",
      "type": "function"
    },
    {
      "inputs": [],
      "name": "renounceOwnership",
      "outputs": [],
      "stateMutability": "nonpayable",
      "type": "function"
    },
    {
      "inputs": [],
      "name": "revealed",
      "outputs": [
        {
          "internalType": "bool",
          "name": "",
          "type": "bool"
        }
      ],
      "stateMutability": "view",
      "type": "function"
    },
    {
      "inputs": [
        {
          "internalType": "uint256",
          "name": "_tokenId",
          "type": "uint256"
        },
        {
          "internalType": "uint256",
          "name": "_salePrice",
          "type": "uint256"
        }
      ],
      "name": "royaltyInfo",
      "outputs": [
        {
          "internalType": "address",
          "name": "",
          "type": "address"
        },
        {
          "internalType": "uint256",
          "name": "",
          "type": "uint256"
        }
      ],
      "stateMutability": "view",
      "type": "function"
    },
    {
      "inputs": [
        {
          "internalType": "address",
          "name": "from",
          "type": "address"
        },
        {
          "internalType": "address",
          "name": "to",
          "type": "address"
        },
        {
          "internalType": "uint256",
          "name": "tokenId",
          "type": "uint256"
        }
      ],
      "name": "safeTransferFrom",
      "outputs": [],
      "stateMutability": "payable",
      "type": "function"
    },
    {
      "inputs": [
        {
          "internalType": "address",
          "name": "from",
          "type": "address"
        },
        {
          "internalType": "address",
          "name": "to",
          "type": "address"
        },
        {
          "internalType": "uint256",
          "name": "tokenId",
          "type": "uint256"
        },
        {
          "internalType": "bytes",
          "name": "_data",
          "type": "bytes"
        }
      ],
      "name": "safeTransferFrom",
      "outputs": [],
      "stateMutability": "payable",
      "type": "function"
    },
    {
      "inputs": [
        {
          "internalType": "address",
          "name": "operator",
          "type": "address"
        },
        {
          "internalType": "bool",
          "name": "approved",
          "type": "bool"
        }
      ],
      "name": "setApprovalForAll",
      "outputs": [],
      "stateMutability": "nonpayable",
      "type": "function"
    },
    {
      "inputs": [
        {
          "internalType": "string",
          "name": "_newBaseExtension",
          "type": "string"
        }
      ],
      "name": "setBaseExtension",
      "outputs": [],
      "stateMutability": "nonpayable",
      "type": "function"
    },
    {
      "inputs": [
        {
          "internalType": "string",
          "name": "_newBaseURI",
          "type": "string"
        }
      ],
      "name": "setBaseURI",
      "outputs": [],
      "stateMutability": "nonpayable",
      "type": "function"
    },
    {
      "inputs": [
        {
          "internalType": "string",
          "name": "_uri",
          "type": "string"
        }
      ],
      "name": "setHiddenBaseURI",
      "outputs": [],
      "stateMutability": "nonpayable",
      "type": "function"
    },
    {
      "inputs": [
        {
          "internalType": "uint256",
          "name": "_maxPerWallet",
          "type": "uint256"
        }
      ],
      "name": "setPreMax",
      "outputs": [],
      "stateMutability": "nonpayable",
      "type": "function"
    },
    {
      "inputs": [
        {
          "internalType": "bool",
          "name": "_state",
          "type": "bool"
        }
      ],
      "name": "setPresale",
      "outputs": [],
      "stateMutability": "nonpayable",
      "type": "function"
    },
    {
      "inputs": [
        {
          "internalType": "uint256",
          "name": "_newPrice",
          "type": "uint256"
        }
      ],
      "name": "setPrice",
      "outputs": [],
      "stateMutability": "nonpayable",
      "type": "function"
    },
    {
      "inputs": [
        {
          "internalType": "uint256",
          "name": "_newPrice",
          "type": "uint256"
        }
      ],
      "name": "setalPrice",
      "outputs": [],
      "stateMutability": "nonpayable",
      "type": "function"
    },
    {
      "inputs": [
        {
          "internalType": "bool",
          "name": "_bool",
          "type": "bool"
        }
      ],
      "name": "setreveal",
      "outputs": [],
      "stateMutability": "nonpayable",
      "type": "function"
    },
    {
      "inputs": [
        {
          "internalType": "bytes4",
          "name": "interfaceId",
          "type": "bytes4"
        }
      ],
      "name": "supportsInterface",
      "outputs": [
        {
          "internalType": "bool",
          "name": "",
          "type": "bool"
        }
      ],
      "stateMutability": "view",
      "type": "function"
    },
    {
      "inputs": [],
      "name": "symbol",
      "outputs": [
        {
          "internalType": "string",
          "name": "",
          "type": "string"
        }
      ],
      "stateMutability": "view",
      "type": "function"
    },
    {
      "inputs": [],
      "name": "tokenCount",
      "outputs": [
        {
          "internalType": "uint256",
          "name": "",
          "type": "uint256"
        }
      ],
      "stateMutability": "view",
      "type": "function"
    },
    {
      "inputs": [
        {
          "internalType": "uint256",
          "name": "tokenId",
          "type": "uint256"
        }
      ],
      "name": "tokenURI",
      "outputs": [
        {
          "internalType": "string",
          "name": "",
          "type": "string"
        }
      ],
      "stateMutability": "view",
      "type": "function"
    },
    {
      "inputs": [],
      "name": "totalSupply",
      "outputs": [
        {
          "internalType": "uint256",
          "name": "",
          "type": "uint256"
        }
      ],
      "stateMutability": "view",
      "type": "function"
    },
    {
      "inputs": [
        {
          "internalType": "address",
          "name": "from",
          "type": "address"
        },
        {
          "internalType": "address",
          "name": "to",
          "type": "address"
        },
        {
          "internalType": "uint256",
          "name": "tokenId",
          "type": "uint256"
        }
      ],
      "name": "transferFrom",
      "outputs": [],
      "stateMutability": "payable",
      "type": "function"
    },
    {
      "inputs": [
        {
          "internalType": "address",
          "name": "newOwner",
          "type": "address"
        }
      ],
      "name": "transferOwnership",
      "outputs": [],
      "stateMutability": "nonpayable",
      "type": "function"
    },
    {
      "inputs": [
        {
          "internalType": "address",
          "name": "addr",
          "type": "address"
        },
        {
          "internalType": "uint256",
          "name": "maxMint",
          "type": "uint256"
        }
      ],
      "name": "updateWL",
      "outputs": [],
      "stateMutability": "nonpayable",
      "type": "function"
    },
    {
      "inputs": [],
      "name": "withdraw",
      "outputs": [],
      "stateMutability": "nonpayable",
      "type": "function"
    }
  ],
  "bytecode": "0x6080604052661c6bf526340000600b55662386f26fc10000600c556064600d556002600e556000601060006101000a81548160ff0219169083151502179055506000601060016101000a81548160ff0219169083151502179055506000601060026101000a81548160ff02191690831515021790555060405180602001604052806000815250601190816200009591906200050e565b506040518060400160405280600581526020017f2e6a736f6e00000000000000000000000000000000000000000000000000000081525060139081620000dc91906200050e565b50348015620000ea57600080fd5b506040518060400160405280600581526020017f42656368610000000000000000000000000000000000000000000000000000008152506040518060400160405280600581526020017f424543484100000000000000000000000000000000000000000000000000000081525081600290816200016891906200050e565b5080600390816200017a91906200050e565b506200018b620001c160201b60201c565b6000819055505050620001b3620001a7620001c660201b60201c565b620001ce60201b60201c565b6000600f81905550620005f5565b600090565b600033905090565b6000600a60009054906101000a900473ffffffffffffffffffffffffffffffffffffffff16905081600a60006101000a81548173ffffffffffffffffffffffffffffffffffffffff021916908373ffffffffffffffffffffffffffffffffffffffff1602179055508173ffffffffffffffffffffffffffffffffffffffff168173ffffffffffffffffffffffffffffffffffffffff167f8be0079c531659141344cd1fd0a4f28419497f9722a3daafe3b4186f6b6457e060405160405180910390a35050565b600081519050919050565b7f4e487b7100000000000000000000000000000000000000000000000000000000600052604160045260246000fd5b7f4e487b7100000000000000000000000000000000000000000000000000000000600052602260045260246000fd5b600060028204905060018216806200031657607f821691505b6020821081036200032c576200032b620002ce565b5b50919050565b60008190508160005260206000209050919050565b60006020601f8301049050919050565b600082821b905092915050565b600060088302620003967fffffffffffffffffffffffffffffffffffffffffffffffffffffffffffffffff8262000357565b620003a2868362000357565b95508019841693508086168417925050509392505050565b6000819050919050565b6000819050919050565b6000620003ef620003e9620003e384620003ba565b620003c4565b620003ba565b9050919050565b6000819050919050565b6200040b83620003ce565b620004236200041a82620003f6565b84845462000364565b825550505050565b600090565b6200043a6200042b565b6200044781848462000400565b505050565b5b818110156200046f576200046360008262000430565b6001810190506200044d565b5050565b601f821115620004be57620004888162000332565b620004938462000347565b81016020851015620004a3578190505b620004bb620004b28562000347565b8301826200044c565b50505b505050565b600082821c905092915050565b6000620004e360001984600802620004c3565b1980831691505092915050565b6000620004fe8383620004d0565b9150826002028217905092915050565b620005198262000294565b67ffffffffffffffff8111156200053557620005346200029f565b5b620005418254620002fd565b6200054e82828562000473565b600060209050601f83116001811462000586576000841562000571578287015190505b6200057d8582620004f0565b865550620005ed565b601f198416620005968662000332565b60005b82811015620005c05784890151825560018201915060208501945060208101905062000599565b86831015620005e05784890151620005dc601f891682620004d0565b8355505b6001600288020188555050505b505050505050565b61377280620006056000396000f3fe6080604052600436106102665760003560e01c80636817c76c11610144578063b88d4fde116100b6578063d5abeb011161007a578063d5abeb01146108c6578063da3ef23f146108f1578063e985e9c51461091a578063f19e75d414610957578063f2fde38b14610980578063fdea8e0b146109a957610266565b8063b88d4fde146107ee578063b94805a21461080a578063c54e73e314610835578063c66828621461085e578063c87b56dd1461088957610266565b80638da5cb5b116101085780638da5cb5b146106de57806390ddedd51461070957806391b7f5ed1461074657806395d89b411461076f5780639f181b5e1461079a578063a22cb465146107c557610266565b80636817c76c1461061a57806370a0823114610645578063715018a61461068257806386e24724146106995780638ad433ac146106c257610266565b80632a55205a116101dd578063453c2310116101a1578063453c23101461050c5780634ff39e26146105375780635183022714610560578063518d3e7d1461058b57806355f804b3146105b45780636352211e146105dd57610266565b80632a55205a146104565780632db11544146104945780632f5d8cad146104b05780633ccfd60b146104d957806342842e0e146104f057610266565b8063095ea7b31161022f578063095ea7b31461036257806318160ddd1461037e57806320ac6850146103a9578063225944cb146103d257806322820a0e146103fd57806323b872dd1461043a57610266565b80622c00fe1461026b57806301ffc9a714610294578063021f70ae146102d157806306fdde03146102fa578063081812fc14610325575b600080fd5b34801561027757600080fd5b50610292600480360381019061028d9190612716565b6109d4565b005b3480156102a057600080fd5b506102bb60048036038101906102b6919061279b565b6109e6565b6040516102c891906127e3565b60405180910390f35b3480156102dd57600080fd5b506102f860048036038101906102f3919061285c565b6109f8565b005b34801561030657600080fd5b5061030f610a99565b60405161031c9190612919565b60405180910390f35b34801561033157600080fd5b5061034c60048036038101906103479190612716565b610b2b565b604051610359919061294a565b60405180910390f35b61037c60048036038101906103779190612965565b610baa565b005b34801561038a57600080fd5b50610393610cee565b6040516103a091906129b4565b60405180910390f35b3480156103b557600080fd5b506103d060048036038101906103cb9190612b04565b610d05565b005b3480156103de57600080fd5b506103e7610d20565b6040516103f491906129b4565b60405180910390f35b34801561040957600080fd5b50610424600480360381019061041f919061285c565b610d26565b60405161043191906129b4565b60405180910390f35b610454600480360381019061044f9190612b4d565b610d3e565b005b34801561046257600080fd5b5061047d60048036038101906104789190612ba0565b611060565b60405161048b929190612be0565b60405180910390f35b6104ae60048036038101906104a99190612716565b61124a565b005b3480156104bc57600080fd5b506104d760048036038101906104d29190612c35565b6112c6565b005b3480156104e557600080fd5b506104ee6112eb565b005b61050a60048036038101906105059190612b4d565b61138a565b005b34801561051857600080fd5b506105216113aa565b60405161052e91906129b4565b60405180910390f35b34801561054357600080fd5b5061055e60048036038101906105599190612716565b6113b0565b005b34801561056c57600080fd5b506105756113c2565b60405161058291906127e3565b60405180910390f35b34801561059757600080fd5b506105b260048036038101906105ad9190612965565b6113d5565b005b3480156105c057600080fd5b506105db60048036038101906105d69190612b04565b61148c565b005b3480156105e957600080fd5b5061060460048036038101906105ff9190612716565b6114a7565b604051610611919061294a565b60405180910390f35b34801561062657600080fd5b5061062f6114b9565b60405161063c91906129b4565b60405180910390f35b34801561065157600080fd5b5061066c6004803603810190610667919061285c565b6114bf565b60405161067991906129b4565b60405180910390f35b34801561068e57600080fd5b50610697611577565b005b3480156106a557600080fd5b506106c060048036038101906106bb9190612d2a565b61158b565b005b6106dc60048036038101906106d79190612716565b61163d565b005b3480156106ea57600080fd5b506106f36116e5565b604051610700919061294a565b60405180910390f35b34801561071557600080fd5b50610730600480360381019061072b919061285c565b61170f565b60405161073d91906129b4565b60405180910390f35b34801561075257600080fd5b5061076d60048036038101906107689190612716565b611727565b005b34801561077b57600080fd5b50610784611739565b6040516107919190612919565b60405180910390f35b3480156107a657600080fd5b506107af6117cb565b6040516107bc91906129b4565b60405180910390f35b3480156107d157600080fd5b506107ec60048036038101906107e79190612d73565b6117d1565b005b61080860048036038101906108039190612e54565b6118dc565b005b34801561081657600080fd5b5061081f61194f565b60405161082c91906127e3565b60405180910390f35b34801561084157600080fd5b5061085c60048036038101906108579190612c35565b611962565b005b34801561086a57600080fd5b50610873611987565b6040516108809190612919565b60405180910390f35b34801561089557600080fd5b506108b060048036038101906108ab9190612716565b611a15565b6040516108bd9190612919565b60405180910390f35b3480156108d257600080fd5b506108db611b25565b6040516108e891906129b4565b60405180910390f35b3480156108fd57600080fd5b5061091860048036038101906109139190612b04565b611b2b565b005b34801561092657600080fd5b50610941600480360381019061093c9190612ed7565b611b46565b60405161094e91906127e3565b60405180910390f35b34801561096357600080fd5b5061097e60048036038101906109799190612716565b611bda565b005b34801561098c57600080fd5b506109a760048036038101906109a2919061285c565b611c29565b005b3480156109b557600080fd5b506109be611cac565b6040516109cb91906127e3565b60405180910390f35b6109dc611cbf565b80600b8190555050565b60006109f182611d3d565b9050919050565b610a00611cbf565b601460008273ffffffffffffffffffffffffffffffffffffffff1673ffffffffffffffffffffffffffffffffffffffff16815260200190815260200160002054600f54610a4d9190612f46565b600f81905550601460008273ffffffffffffffffffffffffffffffffffffffff1673ffffffffffffffffffffffffffffffffffffffff1681526020019081526020016000206000905550565b606060028054610aa890612fa9565b80601f0160208091040260200160405190810160405280929190818152602001828054610ad490612fa9565b8015610b215780601f10610af657610100808354040283529160200191610b21565b820191906000526020600020905b815481529060010190602001808311610b0457829003601f168201915b5050505050905090565b6000610b3682611db7565b610b6c576040517fcf4700e400000000000000000000000000000000000000000000000000000000815260040160405180910390fd5b6006600083815260200190815260200160002060000160009054906101000a900473ffffffffffffffffffffffffffffffffffffffff169050919050565b6000610bb5826114a7565b90508073ffffffffffffffffffffffffffffffffffffffff16610bd6611e16565b73ffffffffffffffffffffffffffffffffffffffff1614610c3957610c0281610bfd611e16565b611b46565b610c38576040517fcfb3b94200000000000000000000000000000000000000000000000000000000815260040160405180910390fd5b5b826006600084815260200190815260200160002060000160006101000a81548173ffffffffffffffffffffffffffffffffffffffff021916908373ffffffffffffffffffffffffffffffffffffffff160217905550818373ffffffffffffffffffffffffffffffffffffffff168273ffffffffffffffffffffffffffffffffffffffff167f8c5be1e5ebec7d5bd14f71427d1e84f3dd0314c0f7b2291e5b200ac8c7c3b92560405160405180910390a4505050565b6000610cf8611e1e565b6001546000540303905090565b610d0d611cbf565b8060129081610d1c9190613186565b5050565b600b5481565b60146020528060005260406000206000915090505481565b6000610d4982611e23565b90508373ffffffffffffffffffffffffffffffffffffffff168173ffffffffffffffffffffffffffffffffffffffff1614610db0576040517fa114810000000000000000000000000000000000000000000000000000000000815260040160405180910390fd5b600080610dbc84611eef565b91509150610dd28187610dcd611e16565b611f16565b610e1e57610de786610de2611e16565b611b46565b610e1d576040517f59c896be00000000000000000000000000000000000000000000000000000000815260040160405180910390fd5b5b600073ffffffffffffffffffffffffffffffffffffffff168573ffffffffffffffffffffffffffffffffffffffff1603610e84576040517fea553b3400000000000000000000000000000000000000000000000000000000815260040160405180910390fd5b610e918686866001611f5a565b8015610e9c57600082555b600560008773ffffffffffffffffffffffffffffffffffffffff1673ffffffffffffffffffffffffffffffffffffffff168152602001908152602001600020600081546001900391905081905550600560008673ffffffffffffffffffffffffffffffffffffffff1673ffffffffffffffffffffffffffffffffffffffff1681526020019081526020016000206000815460010191905081905550610f6a85610f46888887611f60565b7c020000000000000000000000000000000000000000000000000000000017611f88565b600460008681526020019081526020016000208190555060007c0200000000000000000000000000000000000000000000000000000000841603610ff05760006001850190506000600460008381526020019081526020016000205403610fee576000548114610fed578360046000838152602001908152602001600020819055505b5b505b838573ffffffffffffffffffffffffffffffffffffffff168773ffffffffffffffffffffffffffffffffffffffff167fddf252ad1be2c89b69c2b068fc378daa952ba7f163c4a11628f55a4df523b3ef60405160405180910390a46110588686866001611fb3565b505050505050565b6000806000600960008681526020019081526020016000206040518060400160405290816000820160009054906101000a900473ffffffffffffffffffffffffffffffffffffffff1673ffffffffffffffffffffffffffffffffffffffff1673ffffffffffffffffffffffffffffffffffffffff1681526020016000820160149054906101000a90046bffffffffffffffffffffffff166bffffffffffffffffffffffff166bffffffffffffffffffffffff16815250509050600073ffffffffffffffffffffffffffffffffffffffff16816000015173ffffffffffffffffffffffffffffffffffffffff16036111f55760086040518060400160405290816000820160009054906101000a900473ffffffffffffffffffffffffffffffffffffffff1673ffffffffffffffffffffffffffffffffffffffff1673ffffffffffffffffffffffffffffffffffffffff1681526020016000820160149054906101000a90046bffffffffffffffffffffffff166bffffffffffffffffffffffff166bffffffffffffffffffffffff168152505090505b60006111ff611fb9565b6bffffffffffffffffffffffff1682602001516bffffffffffffffffffffffff168661122b9190613258565b61123591906132c9565b90508160000151819350935050509250929050565b80601560003373ffffffffffffffffffffffffffffffffffffffff1673ffffffffffffffffffffffffffffffffffffffff168152602001908152602001600020600082825461129991906132fa565b925050819055506112aa3382611fc3565b80600f60008282546112bc91906132fa565b9250508190555050565b6112ce611cbf565b80601060006101000a81548160ff02191690831515021790555050565b6112f3611cbf565b60004711611336576040517f08c379a000000000000000000000000000000000000000000000000000000000815260040161132d9061337a565b60405180910390fd5b7371787469879aa8c5fe80ee3b6aae844d647daaa073ffffffffffffffffffffffffffffffffffffffff166108fc479081150290604051600060405180830381858888f1935050505061138857600080fd5b565b6113a5838383604051806020016040528060008152506118dc565b505050565b600e5481565b6113b8611cbf565b80600e8190555050565b601060009054906101000a900460ff1681565b6113dd611cbf565b601460008373ffffffffffffffffffffffffffffffffffffffff1673ffffffffffffffffffffffffffffffffffffffff16815260200190815260200160002054600f5461142a9190612f46565b600f8190555080601460008473ffffffffffffffffffffffffffffffffffffffff1673ffffffffffffffffffffffffffffffffffffffff1681526020019081526020016000208190555080600f5461148291906132fa565b600f819055505050565b611494611cbf565b80601190816114a39190613186565b5050565b60006114b282611e23565b9050919050565b600c5481565b60008073ffffffffffffffffffffffffffffffffffffffff168273ffffffffffffffffffffffffffffffffffffffff1603611526576040517f8f4eb60400000000000000000000000000000000000000000000000000000000815260040160405180910390fd5b67ffffffffffffffff600560008473ffffffffffffffffffffffffffffffffffffffff1673ffffffffffffffffffffffffffffffffffffffff16815260200190815260200160002054169050919050565b61157f611cbf565b6115896000611fe1565b565b611593611cbf565b60005b815181101561163957601460008383815181106115b6576115b561339a565b5b602002602001015173ffffffffffffffffffffffffffffffffffffffff1673ffffffffffffffffffffffffffffffffffffffff1681526020019081526020016000206000815480929190611609906133c9565b9190505550600f6000815480929190611621906133c9565b91905055508080611631906133c9565b915050611596565b5050565b6000600190505b8181116116e15761166033828461165b91906132fa565b611fc3565b81600f600082825461167291906132fa565b92505081905550601460003373ffffffffffffffffffffffffffffffffffffffff1673ffffffffffffffffffffffffffffffffffffffff16815260200190815260200160002060008154809291906116c990613411565b919050555080806116d9906133c9565b915050611644565b5050565b6000600a60009054906101000a900473ffffffffffffffffffffffffffffffffffffffff16905090565b60156020528060005260406000206000915090505481565b61172f611cbf565b80600c8190555050565b60606003805461174890612fa9565b80601f016020809104026020016040519081016040528092919081815260200182805461177490612fa9565b80156117c15780601f10611796576101008083540402835291602001916117c1565b820191906000526020600020905b8154815290600101906020018083116117a457829003601f168201915b5050505050905090565b600f5481565b80600760006117de611e16565b73ffffffffffffffffffffffffffffffffffffffff1673ffffffffffffffffffffffffffffffffffffffff16815260200190815260200160002060008473ffffffffffffffffffffffffffffffffffffffff1673ffffffffffffffffffffffffffffffffffffffff16815260200190815260200160002060006101000a81548160ff0219169083151502179055508173ffffffffffffffffffffffffffffffffffffffff1661188b611e16565b73ffffffffffffffffffffffffffffffffffffffff167f17307eab39ab6107e8899845ad3d59bd9653f200f220920489ca2b5937696c31836040516118d091906127e3565b60405180910390a35050565b6118e7848484610d3e565b60008373ffffffffffffffffffffffffffffffffffffffff163b1461194957611912848484846120a7565b611948576040517fd1a57ed600000000000000000000000000000000000000000000000000000000815260040160405180910390fd5b5b50505050565b601060029054906101000a900460ff1681565b61196a611cbf565b80601060016101000a81548160ff02191690831515021790555050565b6013805461199490612fa9565b80601f01602080910402602001604051908101604052809291908181526020018280546119c090612fa9565b8015611a0d5780601f106119e257610100808354040283529160200191611a0d565b820191906000526020600020905b8154815290600101906020018083116119f057829003601f168201915b505050505081565b606060001515601060009054906101000a900460ff16151503611ac45760128054611a3f90612fa9565b80601f0160208091040260200160405190810160405280929190818152602001828054611a6b90612fa9565b8015611ab85780601f10611a8d57610100808354040283529160200191611ab8565b820191906000526020600020905b815481529060010190602001808311611a9b57829003601f168201915b50505050509050611b20565b6000611ace6121f7565b90506000815111611aee5760405180602001604052806000815250611b1c565b80611af884612289565b6013604051602001611b0c939291906134f9565b6040516020818303038152906040525b9150505b919050565b600d5481565b611b33611cbf565b8060139081611b429190613186565b5050565b6000600760008473ffffffffffffffffffffffffffffffffffffffff1673ffffffffffffffffffffffffffffffffffffffff16815260200190815260200160002060008373ffffffffffffffffffffffffffffffffffffffff1673ffffffffffffffffffffffffffffffffffffffff16815260200190815260200160002060009054906101000a900460ff16905092915050565b611be2611cbf565b6000611bec610cee565b90506000600190505b828111611c2457611c11338284611c0c91906132fa565b611fc3565b8080611c1c906133c9565b915050611bf5565b505050565b611c31611cbf565b600073ffffffffffffffffffffffffffffffffffffffff168173ffffffffffffffffffffffffffffffffffffffff1603611ca0576040517f08c379a0000000000000000000000000000000000000000000000000000000008152600401611c979061359c565b60405180910390fd5b611ca981611fe1565b50565b601060019054906101000a900460ff1681565b611cc76123e9565b73ffffffffffffffffffffffffffffffffffffffff16611ce56116e5565b73ffffffffffffffffffffffffffffffffffffffff1614611d3b576040517f08c379a0000000000000000000000000000000000000000000000000000000008152600401611d3290613608565b60405180910390fd5b565b60007f2a55205a000000000000000000000000000000000000000000000000000000007bffffffffffffffffffffffffffffffffffffffffffffffffffffffff1916827bffffffffffffffffffffffffffffffffffffffffffffffffffffffff19161480611db05750611daf826123f1565b5b9050919050565b600081611dc2611e1e565b11158015611dd1575060005482105b8015611e0f575060007c0100000000000000000000000000000000000000000000000000000000600460008581526020019081526020016000205416145b9050919050565b600033905090565b600090565b60008082905080611e32611e1e565b11611eb857600054811015611eb75760006004600083815260200190815260200160002054905060007c0100000000000000000000000000000000000000000000000000000000821603611eb5575b60008103611eab576004600083600190039350838152602001908152602001600020549050611e81565b8092505050611eea565b505b5b6040517fdf2d9b4200000000000000000000000000000000000000000000000000000000815260040160405180910390fd5b919050565b60008060006006600085815260200190815260200160002090508092508254915050915091565b600073ffffffffffffffffffffffffffffffffffffffff8316925073ffffffffffffffffffffffffffffffffffffffff821691508382148383141790509392505050565b50505050565b60008060e883901c905060e8611f7786868461245b565b62ffffff16901b9150509392505050565b600073ffffffffffffffffffffffffffffffffffffffff83169250814260a01b178317905092915050565b50505050565b6000612710905090565b611fdd828260405180602001604052806000815250612464565b5050565b6000600a60009054906101000a900473ffffffffffffffffffffffffffffffffffffffff16905081600a60006101000a81548173ffffffffffffffffffffffffffffffffffffffff021916908373ffffffffffffffffffffffffffffffffffffffff1602179055508173ffffffffffffffffffffffffffffffffffffffff168173ffffffffffffffffffffffffffffffffffffffff167f8be0079c531659141344cd1fd0a4f28419497f9722a3daafe3b4186f6b6457e060405160405180910390a35050565b60008373ffffffffffffffffffffffffffffffffffffffff1663150b7a026120cd611e16565b8786866040518563ffffffff1660e01b81526004016120ef949392919061367d565b6020604051808303816000875af192505050801561212b57506040513d601f19601f8201168201806040525081019061212891906136de565b60015b6121a4573d806000811461215b576040519150601f19603f3d011682016040523d82523d6000602084013e612160565b606091505b50600081510361219c576040517fd1a57ed600000000000000000000000000000000000000000000000000000000815260040160405180910390fd5b805181602001fd5b63150b7a0260e01b7bffffffffffffffffffffffffffffffffffffffffffffffffffffffff1916817bffffffffffffffffffffffffffffffffffffffffffffffffffffffff191614915050949350505050565b60606011805461220690612fa9565b80601f016020809104026020016040519081016040528092919081815260200182805461223290612fa9565b801561227f5780601f106122545761010080835404028352916020019161227f565b820191906000526020600020905b81548152906001019060200180831161226257829003601f168201915b5050505050905090565b6060600082036122d0576040518060400160405280600181526020017f300000000000000000000000000000000000000000000000000000000000000081525090506123e4565b600082905060005b600082146123025780806122eb906133c9565b915050600a826122fb91906132c9565b91506122d8565b60008167ffffffffffffffff81111561231e5761231d6129d9565b5b6040519080825280601f01601f1916602001820160405280156123505781602001600182028036833780820191505090505b5090505b600085146123dd576001826123699190612f46565b9150600a85612378919061370b565b603061238491906132fa565b60f81b81838151811061239a5761239961339a565b5b60200101907effffffffffffffffffffffffffffffffffffffffffffffffffffffffffffff1916908160001a905350600a856123d691906132c9565b9450612354565b8093505050505b919050565b600033905090565b60007f01ffc9a7000000000000000000000000000000000000000000000000000000007bffffffffffffffffffffffffffffffffffffffffffffffffffffffff1916827bffffffffffffffffffffffffffffffffffffffffffffffffffffffff1916149050919050565b60009392505050565b61246e8383612501565b60008373ffffffffffffffffffffffffffffffffffffffff163b146124fc57600080549050600083820390505b6124ae60008683806001019450866120a7565b6124e4576040517fd1a57ed600000000000000000000000000000000000000000000000000000000815260040160405180910390fd5b81811061249b5781600054146124f957600080fd5b50505b505050565b60008054905060008203612541576040517fb562e8dd00000000000000000000000000000000000000000000000000000000815260040160405180910390fd5b61254e6000848385611f5a565b600160406001901b178202600560008573ffffffffffffffffffffffffffffffffffffffff1673ffffffffffffffffffffffffffffffffffffffff168152602001908152602001600020600082825401925050819055506125c5836125b66000866000611f60565b6125bf856126bc565b17611f88565b6004600083815260200190815260200160002081905550600080838301905073ffffffffffffffffffffffffffffffffffffffff85169150828260007fddf252ad1be2c89b69c2b068fc378daa952ba7f163c4a11628f55a4df523b3ef600080a4600183015b81811461266657808360007fddf252ad1be2c89b69c2b068fc378daa952ba7f163c4a11628f55a4df523b3ef600080a460018101905061262b565b50600082036126a1576040517f2e07630000000000000000000000000000000000000000000000000000000000815260040160405180910390fd5b8060008190555050506126b76000848385611fb3565b505050565b60006001821460e11b9050919050565b6000604051905090565b600080fd5b600080fd5b6000819050919050565b6126f3816126e0565b81146126fe57600080fd5b50565b600081359050612710816126ea565b92915050565b60006020828403121561272c5761272b6126d6565b5b600061273a84828501612701565b91505092915050565b60007fffffffff0000000000000000000000000000000000000000000000000000000082169050919050565b61277881612743565b811461278357600080fd5b50565b6000813590506127958161276f565b92915050565b6000602082840312156127b1576127b06126d6565b5b60006127bf84828501612786565b91505092915050565b60008115159050919050565b6127dd816127c8565b82525050565b60006020820190506127f860008301846127d4565b92915050565b600073ffffffffffffffffffffffffffffffffffffffff82169050919050565b6000612829826127fe565b9050919050565b6128398161281e565b811461284457600080fd5b50565b60008135905061285681612830565b92915050565b600060208284031215612872576128716126d6565b5b600061288084828501612847565b91505092915050565b600081519050919050565b600082825260208201905092915050565b60005b838110156128c35780820151818401526020810190506128a8565b60008484015250505050565b6000601f19601f8301169050919050565b60006128eb82612889565b6128f58185612894565b93506129058185602086016128a5565b61290e816128cf565b840191505092915050565b6000602082019050818103600083015261293381846128e0565b905092915050565b6129448161281e565b82525050565b600060208201905061295f600083018461293b565b92915050565b6000806040838503121561297c5761297b6126d6565b5b600061298a85828601612847565b925050602061299b85828601612701565b9150509250929050565b6129ae816126e0565b82525050565b60006020820190506129c960008301846129a5565b92915050565b600080fd5b600080fd5b7f4e487b7100000000000000000000000000000000000000000000000000000000600052604160045260246000fd5b612a11826128cf565b810181811067ffffffffffffffff82111715612a3057612a2f6129d9565b5b80604052505050565b6000612a436126cc565b9050612a4f8282612a08565b919050565b600067ffffffffffffffff821115612a6f57612a6e6129d9565b5b612a78826128cf565b9050602081019050919050565b82818337600083830152505050565b6000612aa7612aa284612a54565b612a39565b905082815260208101848484011115612ac357612ac26129d4565b5b612ace848285612a85565b509392505050565b600082601f830112612aeb57612aea6129cf565b5b8135612afb848260208601612a94565b91505092915050565b600060208284031215612b1a57612b196126d6565b5b600082013567ffffffffffffffff811115612b3857612b376126db565b5b612b4484828501612ad6565b91505092915050565b600080600060608486031215612b6657612b656126d6565b5b6000612b7486828701612847565b9350506020612b8586828701612847565b9250506040612b9686828701612701565b9150509250925092565b60008060408385031215612bb757612bb66126d6565b5b6000612bc585828601612701565b9250506020612bd685828601612701565b9150509250929050565b6000604082019050612bf5600083018561293b565b612c0260208301846129a5565b9392505050565b612c12816127c8565b8114612c1d57600080fd5b50565b600081359050612c2f81612c09565b92915050565b600060208284031215612c4b57612c4a6126d6565b5b6000612c5984828501612c20565b91505092915050565b600067ffffffffffffffff821115612c7d57612c7c6129d9565b5b602082029050602081019050919050565b600080fd5b6000612ca6612ca184612c62565b612a39565b90508083825260208201905060208402830185811115612cc957612cc8612c8e565b5b835b81811015612cf25780612cde8882612847565b845260208401935050602081019050612ccb565b5050509392505050565b600082601f830112612d1157612d106129cf565b5b8135612d21848260208601612c93565b91505092915050565b600060208284031215612d4057612d3f6126d6565b5b600082013567ffffffffffffffff811115612d5e57612d5d6126db565b5b612d6a84828501612cfc565b91505092915050565b60008060408385031215612d8a57612d896126d6565b5b6000612d9885828601612847565b9250506020612da985828601612c20565b9150509250929050565b600067ffffffffffffffff821115612dce57612dcd6129d9565b5b612dd7826128cf565b9050602081019050919050565b6000612df7612df284612db3565b612a39565b905082815260208101848484011115612e1357612e126129d4565b5b612e1e848285612a85565b509392505050565b600082601f830112612e3b57612e3a6129cf565b5b8135612e4b848260208601612de4565b91505092915050565b60008060008060808587031215612e6e57612e6d6126d6565b5b6000612e7c87828801612847565b9450506020612e8d87828801612847565b9350506040612e9e87828801612701565b925050606085013567ffffffffffffffff811115612ebf57612ebe6126db565b5b612ecb87828801612e26565b91505092959194509250565b60008060408385031215612eee57612eed6126d6565b5b6000612efc85828601612847565b9250506020612f0d85828601612847565b9150509250929050565b7f4e487b7100000000000000000000000000000000000000000000000000000000600052601160045260246000fd5b6000612f51826126e0565b9150612f5c836126e0565b9250828203905081811115612f7457612f73612f17565b5b92915050565b7f4e487b7100000000000000000000000000000000000000000000000000000000600052602260045260246000fd5b60006002820490506001821680612fc157607f821691505b602082108103612fd457612fd3612f7a565b5b50919050565b60008190508160005260206000209050919050565b60006020601f8301049050919050565b600082821b905092915050565b60006008830261303c7fffffffffffffffffffffffffffffffffffffffffffffffffffffffffffffffff82612fff565b6130468683612fff565b95508019841693508086168417925050509392505050565b6000819050919050565b600061308361307e613079846126e0565b61305e565b6126e0565b9050919050565b6000819050919050565b61309d83613068565b6130b16130a98261308a565b84845461300c565b825550505050565b600090565b6130c66130b9565b6130d1818484613094565b505050565b5b818110156130f5576130ea6000826130be565b6001810190506130d7565b5050565b601f82111561313a5761310b81612fda565b61311484612fef565b81016020851015613123578190505b61313761312f85612fef565b8301826130d6565b50505b505050565b600082821c905092915050565b600061315d6000198460080261313f565b1980831691505092915050565b6000613176838361314c565b9150826002028217905092915050565b61318f82612889565b67ffffffffffffffff8111156131a8576131a76129d9565b5b6131b28254612fa9565b6131bd8282856130f9565b600060209050601f8311600181146131f057600084156131de578287015190505b6131e8858261316a565b865550613250565b601f1984166131fe86612fda565b60005b8281101561322657848901518255600182019150602085019450602081019050613201565b86831015613243578489015161323f601f89168261314c565b8355505b6001600288020188555050505b505050505050565b6000613263826126e0565b915061326e836126e0565b925082820261327c816126e0565b9150828204841483151761329357613292612f17565b5b5092915050565b7f4e487b7100000000000000000000000000000000000000000000000000000000600052601260045260246000fd5b60006132d4826126e0565b91506132df836126e0565b9250826132ef576132ee61329a565b5b828204905092915050565b6000613305826126e0565b9150613310836126e0565b925082820190508082111561332857613327612f17565b5b92915050565b7f4e6f20626172616e636500000000000000000000000000000000000000000000600082015250565b6000613364600a83612894565b915061336f8261332e565b602082019050919050565b6000602082019050818103600083015261339381613357565b9050919050565b7f4e487b7100000000000000000000000000000000000000000000000000000000600052603260045260246000fd5b60006133d4826126e0565b91507fffffffffffffffffffffffffffffffffffffffffffffffffffffffffffffffff820361340657613405612f17565b5b600182019050919050565b600061341c826126e0565b91506000820361342f5761342e612f17565b5b600182039050919050565b600081905092915050565b600061345082612889565b61345a818561343a565b935061346a8185602086016128a5565b80840191505092915050565b6000815461348381612fa9565b61348d818661343a565b945060018216600081146134a857600181146134bd576134f0565b60ff19831686528115158202860193506134f0565b6134c685612fda565b60005b838110156134e8578154818901526001820191506020810190506134c9565b838801955050505b50505092915050565b60006135058286613445565b91506135118285613445565b915061351d8284613476565b9150819050949350505050565b7f4f776e61626c653a206e6577206f776e657220697320746865207a65726f206160008201527f6464726573730000000000000000000000000000000000000000000000000000602082015250565b6000613586602683612894565b91506135918261352a565b604082019050919050565b600060208201905081810360008301526135b581613579565b9050919050565b7f4f776e61626c653a2063616c6c6572206973206e6f7420746865206f776e6572600082015250565b60006135f2602083612894565b91506135fd826135bc565b602082019050919050565b60006020820190508181036000830152613621816135e5565b9050919050565b600081519050919050565b600082825260208201905092915050565b600061364f82613628565b6136598185613633565b93506136698185602086016128a5565b613672816128cf565b840191505092915050565b6000608082019050613692600083018761293b565b61369f602083018661293b565b6136ac60408301856129a5565b81810360608301526136be8184613644565b905095945050505050565b6000815190506136d88161276f565b92915050565b6000602082840312156136f4576136f36126d6565b5b6000613702848285016136c9565b91505092915050565b6000613716826126e0565b9150613721836126e0565b9250826137315761373061329a565b5b82820690509291505056fea264697066735822122026e0be5749f89b7c0b3cef71723b5176398de240802edf98ba43168caa86aa7164736f6c63430008110033",
  "linkReferences": {},
  "deployedLinkReferences": {}
}